:200000000C9464000C948C000C948C000C948C000C948C000C948C000C948C000C948C00A8
:200020000C948C000C948C000C948C000C944A030C948C000C948C000C948C000C948C009F
:200040000C94670C0C948C000C94510E0C948C000C948C000C948C000C948C000C948C0086
:200060000C948C000C948C0000000000240027002A0000000000250028002B00000000003B
:20008000230026002900040404040404040402020202020203030303030301020408102071
:2000A0004080010204081020010204081020000000070002010000030406000000000000EB
:2000C00000004504D3074D0F11241FBECFEFD8E0DEBFCDBF11E0A0E0B1E0E2E5F3E202C090
:2000E00005900D92AE3EB107D9F713E0AEEEB1E001C01D92A837B107E1F710E0C8ECD0E005
:2001000004C02297FE010E94A311C23CD107C9F70E94870F0C94A7110C940000CF93DF9373
:20012000BC018230910510F462E070E0A0917603B0917703ED01E0E0F0E040E050E021C010
:20014000888199818617970769F48A819B81309719F09383828304C09093770380937603E5
:20016000FE0134C06817790738F44115510519F08417950708F4AC01FE018A819B819C0109
:20018000E9012097E9F641155105A9F1CA01861B970B049708F4BA01E0E0F0E02AC08D91A1
:2001A0009C91119784179507F9F46417750781F412968D919C911397309719F09383828352
:2001C00004C09093770380937603FD0132964CC0CA01861B970BFD01E80FF91F619371934D
:2001E00002978D939C9340C0FD01828193819C01D9011097A1F68091740390917503892B78
:2002000041F48091D5019091D60190937503809374034091D7015091D8014115510541F461
:200220004DB75EB78091D3019091D401481B590B2091740330917503CA01821B930B8617FF
:20024000970780F0AB014E5F5F4F8417950750F0420F531F5093750340937403F9016193BC
:20026000719302C0E0E0F0E0CF01DF91CF910895CF93DF93009709F450C0EC0122971B8230
:200280001A82A0917603B0917703109709F140E050E0AC17BD0708F1BB83AA83FE012191D0
:2002A0003191E20FF31FAE17BF0779F48D919C911197280F391F2E5F3F4F398328831296D5
:2002C0008D919C9113979B838A834115510571F4D0937703C093760320C012968D919C9171
:2002E0001397AD01009711F0DC01D3CFFA01D383C28321913191E20FF31FCE17DF0769F45A
:2003000088819981280F391F2E5F3F4FFA01318320838A819B8193838283DF91CF9108950F
:20032000FB01DC014150504048F001900D920020C9F701C01D9241505040E0F70895FC0179
:2003400081E090E00190061609F4CF010020D1F701970895FB0151915523A9F0BF01DC01A9
:200360004D9145174111E1F759F4CD010190002049F04D9140154111C9F3FB014111EFCFC7
:2003800081E090E001970895FC018091EE018C3090F480838F5F8093EE01815090E0FC01E9
:2003A000EE0FFF1FE80FF91FE151FE4F88EB9BE09283818308958FEF80830895DC018C91D8
:2003C00090E0FC01EE0FFF1FE80FF91FE151FE4F80818F7B80838C916CE00E94311190E03C
:2003E000AC01440F551F480F591F440F551F440F551F20E030E0C901840F951FFC01EE0F11
:20040000FF1FE80FF91FE151FE4F808186FD05C02F5F3F4F2C30310571F70895FC01208196
:200420002C30B8F58181992787FD909548E850E0481B590B440F551F440F551F641775079C
:2004400084F08281992787FD909548E552E0481B590B440F551F440F551F641775070CF411
:20046000AB0142505040CA01AA2797FDA095BA2F880F991FAA1FBB1F4FB7F89430E0F901D2
:20048000EE0FFF1FE20FF31FE151FE4F928381834FBF0895FC01808190E0FC01EE0FFF1F75
:2004A000E80FF91FE151FE4F8081829586958695817009F081E00895AF92BF92CF92DF9214
:2004C000EF92FF920F931F93CF93DF93EC019B0182E0603278070CF048C077FF03C020E0A9
:2004E00030E005C0653B710514F024EB30E000D000D0B901882777FD8095982F2981332791
:2005000027FD3095E8E8AE2EB12CA21AB30AAA0CBB1CAA0CBB1CCC24B7FCC094DC2CEA816C
:20052000FF27E7FDF09528E532E02E1B3F0B220F331F220F331F442737FD4095542FEDB7D9
:20054000FEB7218332834383548320E030E040E050E004EBE02EF12C012D112D0E94C9108F
:200560009B010F900F900F900F90CE01B9010E940E02DF91CF911F910F91FF90EF90DF908B
:20058000CF90BF90AF900895CF92DF92EF92FF921F93CF93DF93EC01162F7A016901888147
:2005A0008C3008F064C0862F61E00E94D30D888190E0FC01EE0FFF1FE80FF91FE151FE4FCC
:2005C0001F738081807C812B808380E292E08E199F0964E070E00E943D11698380E699E06B
:2005E0008C199D0964E070E00E943D116A83A8818A2F6CE00E943111682F70E0AB01440F47
:20060000551F460F571F440F551F440F551F20E030E0C901840F951FFC01EE0FFF1FE80FDD
:20062000F91FE151FE4F808186FD15C02F5F3F4F2C30310571F724C01092800082E0809339
:2006400081001092850010928400B19A80916F00826080936F008A2F90E0FC01EE0FFF1F5C
:20066000E80FF91FE151FE4F8081806480838881DF91CF911F91FF90EF90DF90CF90089502
:20068000672BD1F2E8CF40E252E020E639E00E94C40208951F920F920FB60F9211242F9327
:2006A0003F934F935F936F937F938F939F93AF93BF93EF93FF938091130287FF05C0109271
:2006C0008500109284002BC020911302332727FD30958091EE0190E02817390704F5809182
:2006E0001302992787FD9095FC01EE0FFF1FE80FF91FE151FE4F808186FF11C08091130259
:20070000992787FD9095FC01EE0FFF1FE80FF91FE151FE4F80818F7360E00E94F90D8091CE
:2007200013028F5F8093130220911302332727FD30958091EE0190E0281739070CF04EC08C
:20074000809113028C300CF049C0209184003091850080911302992787FD9095FC01EE0FAE
:20076000FF1FE80FF91FE151FE4F81819281280F391F3093890020938800809113029927BC
:2007800087FD9095FC01EE0FFF1FE80FF91FE151FE4F808186FF2AC080911302992787FD30
:2007A0009095FC01EE0FFF1FE80FF91FE151FE4F80818F7361E00E94F90D18C080E49CE9C1
:2007C00005C08091840090918500049690938900809388008FEF8093130208C08091840035
:2007E0009091850084549C4948F3EBCFFF91EF91BF91AF919F918F917F916F915F914F91D1
:200800003F912F910F900FBE0F901F901895FC01603DA9F0613D28F4603959F0603CA1F4E1
:200820000BC0603E19F0643F79F40CC052A741A7089554A743A7089556A745A7089550ABE9
:2008400047A7089552AB41AB0895FC0150AF47AB0895FC01138214821582DC0180E0169654
:200860001C9216978F5F11968032C9F716A210A617A203A8F4A9E02D309709F0099508959F
:20088000FC0110820E942904089584E192E00E94400408954F925F926F927F928F929F92CD
:2008A000AF92BF92CF92DF92EF92FF920F93DF93CF9300D0CDB7DEB72B017A013A83298353
:2008C0008DE061E00E94D30D00E089819A813C01882477FC8094982C5701CC24B7FCC09460
:2008E000DC2C11C0C401B3010E94BD0C8DE061E00E94F90DC601B5010E94BD0C8DE060E050
:200900000E94F90D0F5F802F90E08415950554F30F900F90CF91DF910F91FF90EF90DF90FD
:20092000CF90BF90AF909F908F907F906F905F904F9008950F931F938C018DE061E00E94D2
:20094000D30DC80162E070E048EC50E020E931E00E944A046CE271E080E090E00E94BD0C14
:20096000C80162E070E041E050E024E030E00E944A046CE271E080E090E00E94BD0CC80124
:2009800062E070E048EC50E020E931E00E944A041F910F910895EF92FF920F931F938A0179
:2009A00091E6E92E93E0F92E70E06F7070706069C70140E050E00E94B610602F70E06F77F2
:2009C0007070C70140E050E00E94B610000F012F001F110BC701B80140E050E00E94B61004
:2009E0001F910F91FF90EF9008950F931F9301E613E0C80169EF70E040E050E00E94B610A5
:200A0000C80162E070E040E050E00E94B610C80162E070E040E050E00E94B6101F910F9160
:200A2000089581E693E067EF70E040E050E00E94B610089581E693E060EF70E040E050E07B
:200A40000E94B6100895EF92FF920F931F938C0131E6E32E33E0F32EBC016F777070C701F7
:200A600040E050E00E94B610000F012F001F110B0F771070C701B80140E050E00E94B61005
:200A80001F910F91FF90EF900895EF92FF920F931F93CF93DF93162FE42E022FF32E0E94D6
:200AA0001A0581E693E0612F40E050E00E946E10202F3F2DC901EC0110E005C0899190E08C
:200AC0000E9423051F5F1E15C8F30E941105DF91CF911F910F91FF90EF9008959A01FA01C7
:200AE00001900020E9F73197E41BF50B4E2F0E9445050895AB0161E70E946E0508950F9350
:200B00001F938A0170E06F707070606E81E693E040E050E00E94B610C8010E9423051F91E6
:200B20000F9108951F93CF93DF93EC018881882361F10E941A0581E693E069E770E040E0A4
:200B400050E00E94B610E981FA8181E693E0608140E050E00E946E10E981FA8181E693E02E
:200B6000618140E050E00E946E1012E009C0E981FA81E10FF11D808190E00E9423051F5FCC
:200B800088811817A0F30E941105DF91CF911F9108951F93CF93DF93EC018E81813731F05A
:200BA000893789F5CE010E94920536C08DA99EA9892B91F18FA198A5019762E070E00E940D
:200BC0003D11162F862F90E00E948E00AC01DC0121E030E011C0FE01E20FF11D96819C937D
:200BE0002F5FFE01E20FF11D8681879588278795890F8D932F5F3F5F311768F3EDA9FEA9B7
:200C0000CA01099509C0EFA9F8AD309729F06FA161502796AE010995DF91CF911F9108959D
:200C2000CF93DF93EC0181E693E00E940A0FAC018EA1882391F0473F510529F41EA2CE01CE
:200C40000E94C90593C08FA198A5FE01E80FF91F4683019698A78FA389C08B81882309F488
:200C600046C0403851050CF042C081508B83FE01E80FF11D4683882309F078C08C81882362
:200C800009F474C0803D49F1813D28F4803959F0803C59F51FC0803E19F0843F31F513C0E4
:200CA000E9A5FAA502C0EBA5FCA53097F1F06E8170E07695762F6627779567958F81680F61
:200CC000711D8D8111C0E9A9FAA9309771F06E818F8109C0EDA5FEA502C0EFA5F8A930978F
:200CE00021F06E818D8170E009951C823FC0403F510514F09A0106C09A01207F3070842F94
:200D00008F708D83203E3105F1F0213E310554F4203C3105D1F0203D3105B9F02039310554
:200D200029F511C0243F310571F0253F310524F4203F3105D9F40DC0293F310599F02F3F54
:200D40003105A1F40BC082E001C081E08B832C830DC081E08EA318A61FA208C0CE010E94A5
:200D6000290404C084E192E00E94F504DF91CF91089581E693E00E94DF0E0895AF92BF920B
:200D8000CF92DF92EF92FF920F931F93CF93DF938C01D62EC72EB42EA22E862F972F60E054
:200DA00071E00E94AA01EC018D2D9C2D6FE270E00E949F01209771F07C010894E11CF11C07
:200DC000E114F10439F09E012E5F822F8E19D8018C930EC0AD2DBC2DFD0101900020E9F764
:200DE000ED19EF5FD801EC932D2D3C2DC9017C01F801808190E00E948E00FC01D801129625
:200E00009C938E9311978C91E80FF11D10821196ED91FC911297B0821196ED91FC9112973E
:200E2000A18211968D919C9112974C9150E0425050400296B7010E949001DF91CF911F91C2
:200E40000F91FF90EF90DF90CF90BF90AF9008950F931F938C0181E693E00E94820EC80135
:200E60000E949A046CE271E080E090E00E94BD0CC8010E94F504C8010E9492051F910F91A2
:200E800008950F931F93CF93DF93782FA62F833008F055C090E00196B82FBB0FBB0FBB0F05
:200EA0000197482F440F440F440F51E060E0CA2FD0E001E010E021C0842F82508C3018F015
:200EC0008E508630C0F4242F30E0F901E75AFD4F8081823080F4652BF901EE0FFF1FEC58D0
:200EE000FD4F11821082852F90E08C239D23892B11F011830083550F4F5F4B17E8F277233A
:200F000061F4862F8C7FF8942BB1982F909592238A23982B9BB9789412C0962F90956A239A
:200F2000713039F4F89485B19823962B95B9789406C0F89488B19823962B98B97894DF9177
:200F4000CF911F910F910895482F883018F52091510230915202672B81F481E090E002C055
:200F6000880F991F4A95E2F780959095282339233093520220935102089581E090E002C03C
:200F8000880F991F4A95E2F7282B392B30935202209351020895833028F4E82FF0E0ED5ADC
:200FA000FD4F60830895CF93DF93C0EBD2E0CE010E94C401239682E0C43DD807C1F7DF91DB
:200FC000CF9108950F931F93CF93DF93982F8B01883170F5C82FD0E0FE01E75AFD4FE081E7
:200FE000E33091F0E43021F592509C30D8F49E0122503040C901880F991F820F931F805507
:201000009D4F0E945C020EC0282F22502C3018F08051863038F4903108F0922F892FB8014B
:201020000E94730DCC0FDD1FCC58DD4F19830883DF91CF911F910F9108950E94AF0C209175
:20104000AC023091AD024091AE025091AF02621B730B840B950B655F714080409040A8F098
:2010600060E080915002882309F461E0609350028DE00E94F90D0E94AF0C6093AC02709389
:20108000AD028093AE029093AF020895CF92DF92EF92FF920F931F93CF93DF93D82E8B01CF
:2010A000EEEFCE2EC80E8BE08C15A8F06430710591F08D2D90E00297EC01CC0FDD1FC80FF4
:2010C000D91FC055DD4FCE010E944A02882319F0CE010E94DE014D2D40514830B0F420913E
:2010E0005102309152020230110509F013C181E090E0042E02C0880F991F0A94E2F7282B95
:20110000392B30935202209351029BE09C1510F4463048F52D2D30E0ED2DE695E695E69576
:201120000115110581F4F0E0EF58FD4F2770307081E090E002C0880F991F2A95E2F7208159
:20114000282B208310C0F0E0EF58FD4F2770307081E090E002C0880F991F2A95E2F78095A0
:20116000208182238083ED2CFF24F701EE0FFF1FEC58FD4F1182108202301105C1F00330F6
:20118000110544F40115110589F10130110509F0BAC04AC00430110509F483C004301105C3
:2011A0000CF461C00630110509F0ADC0A0C0483008F0BDC0EBE0EC1510F4463088F4FFE06E
:2011C000FD1510F08D2D01C08C2D60E00E94D30D8FE08D1508F0CD2C8C2D60E00E94F90D64
:2011E000E9E5F2E0EE0EFF1E82E03AC0FBE0FC1518F4463008F09BC08FE08D1510F08D2D4E
:2012000001C08C2D60E00E94D30D9FE09D1508F0CD2C8C2D60E00E94F90DE9E5F2E0EE0E33
:20122000FF1EF701108283C0FBE0FC1518F4463008F07DC08FE08D1510F08D2D01C08C2DDC
:2012400060E00E94F90D9FE09D1508F0CD2C8C2D61E00E94D30DE9E5F2E0EE0EFF1E81E0EE
:20126000F701808364C0FBE0FC1518F4463008F05EC08FE08D1510F08D2D01C08C2D61E045
:201280000E94D30D9FE09D1508F0CD2C8C2D60E070E00E94730DE9E5F2E0EE0EFF1E83E023
:2012A000DFCFFBE0FC1508F442C0F701E75AFD4F84E08083870102501040E801CC0FDD1FC0
:2012C000C00FD11FC055DD4FCE010E944A02882349F48FE08D1508F47801CE01B7010E94BA
:2012E000430325C084E192E065E071E010C0E9E5F2E0EE0EFF1E86E0F701808384E192E095
:2013000065E271E004C084E192E060E471E00E947A050DC081E090E0042E02C0880F991F03
:201320000A94E2F78095909528233923EACEDF91CF911F910F91FF90EF90DF90CF90089504
:201340009F92AF92BF92CF92DF92EF92FF920F931F93CF93DF93262FFA018D3609F4E0C00E
:201360008E3638F4893609F42EC18B3609F047C182C0803739F08A3709F445C08F3609F06D
:201380003EC159C0653008F43AC1D080A180C2809380B4808D2D82508C3008F030C1ED2C65
:2013A000FF24870102501040E801CC0FDD1FC00FD11FC055DD4FCE010E944A02882319F0AF
:2013C000CE010E94DE018FE08D1508F087014C2D50E05695542F4427579547954A0D511D1D
:2013E0002B2D30E03695322F222737952795290D311DCE01B8010E94C4028D2D64E070E0C6
:201400000E944608FCC0623078F0818190E09695982F8827979587952081820F911D9093C8
:20142000DA018093D901EBC084E192E061E571E00E947A05E4C0623008F4E1C08181682F3E
:2014400070E02230A1F0828190E09695982F882797958795682B792B233049F02381922FD5
:201460009295990F990F907C80E0682B792B80810E94E207C4C081E693E060EF0E943A0F2E
:2014800081E693E06CE60E943A0F1EEF00EF1C3010F00630A0F481E693E060E00E943A0F1E
:2014A00081E693E061E00E943A0F81E693E061E00E943A0F81E693E061E00E943A0F0830E2
:2014C00050F481E693E062E00E943A0F81E693E06AE00E943A0F1C3010F00630B0F481E625
:2014E00093E063E00E943A0F81E693E068E00E943A0F1C3050F481E693E064E00E943A0FA5
:2015000081E693E06EE00E943A0F81E693E06FE70E943A0F1F5F0F5F163109F0B8CF6AC0C0
:20152000662309F46CC0008181E693E060EF0E943A0F81E693E06EE60E943A0F81E693E071
:20154000602F0E943A0F083108F054C0C02FD0E0FE01E75AFD4F81E693E060810E943A0FFB
:201560008E01000F111F0C581D4FF80160816F7781E693E00E943A0FF80160817181CB01B0
:201580008078892B49F0660F672F661F770B6F7781E693E00E943A0FCC0FDD1FCC58DD4F82
:2015A00028813981C9018070907C892B19F1330F220B330F322F221F622F6F7781E693E0A0
:2015C0000E943A0F17C081E693E060EF0E943A0F81E693E06AE60E943A0F10EF183010F0D9
:2015E0006FE701C0612F81E693E00E943A0F1F5F1830A1F781E693E067EF0E943A0FDF9196
:20160000CF911F910F91FF90EF90DF90CF90BF90AF909F9008951F93CF93DF93282F162FC2
:20162000C82FD0E0FE01EF58FD4F80811823442331F4FE01EA5AFD4F8081811751F084E1DB
:2016400092E0622F412F50E00E94CB04CA5ADD4F1883DF91CF911F9108951F93CF93DF93E8
:2016600084E192E061E671E042E022E00E94BE0684E192E060EE42EE57E00E94070484E1D3
:2016800092E060E941E457E00E94070484E192E060EC44EA57E00E94070484E192E060ED2D
:2016A0004BEC57E00E94070484E192E064EF46E458E00E94070484E192E060EF40EA59E04D
:2016C0000E94250410E0812F8051883020F4812F62E070E003C0812F61E070E00E944608CC
:2016E0001F5F183181F7109252021092510284E192E040E051EE60E070E00E942807C0E089
:20170000D0E08C2FFE01EF58FD4FE081CC2321F469B16E236C7F08C0C13021F463B16E235E
:201720006F7302C066B16E2341E00E940B0B2196C330D10531F70E94AF0C6093AC027093DB
:20174000AD028093AE029093AF028DE061E00E94D30DDF91CF911F910895809153028823E5
:2017600049F069B18091710268236C7F80E040E00E940B0B80915402882349F063B1809174
:20178000720268236F7381E040E00E940B0B80915502882341F066B180917302682382E061
:2017A00040E00E940B0B0895AF92BF92CF92DF92EF92FF920F931F93CF93DF930E94AD0BBC
:2017C00084E192E00E94B90690934F0280934E02181619063CF480914D02882319F481E004
:2017E00080934D0280914D02882379F40E941D080CC084E192E00E94100684E192E00E9474
:20180000B90690934F0280934E0280914E0290914F02892B71F70E94AF0C6093A40270934A
:20182000A5028093A6029093A702A090A802B090A902C090AA02D090AB022091D901309160
:20184000DA0179010027F7FC0095102F6A197B098C099D09E616F7060807190768F5EA0C88
:20186000FB1C0C1D1D1DE092A802F092A9020093AA021093AB02C9E5D2E010EF1830C0F4BB
:2018800088818230A9F48091510290915202012E02C0959587950A94E2F780FF09C0812F71
:2018A0000E94510DAC0184E192E0612F0E947F051F5F2196183011F7DF91CF911F910F9149
:2018C000FF90EF90DF90CF90BF90AF9008951F920F920FB60F9211242F933F938F939F932C
:2018E000AF93BF938091D8029091D902A091DA02B091DB023091DC020196A11DB11D232F2E
:201900002D5F2D3720F02D570196A11DB11D2093DC028093D8029093D902A093DA02B09352
:20192000DB028091D4029091D502A091D602B091D7020196A11DB11D8093D4029093D502C2
:20194000A093D602B093D702BF91AF919F918F913F912F910F900FBE0F901F9018958FB743
:20196000F8942091D8023091D9024091DA025091DB028FBFB901CA0108959B01AC017FB75A
:20198000F8948091D4029091D502A091D602B091D70266B5A89B05C06F3F19F00196A11D8A
:2019A000B11D7FBFBA2FA92F982F8827860F911DA11DB11D62E0880F991FAA1FBB1F6A95E2
:2019C000D1F7BC012DC0FFB7F8948091D4029091D502A091D602B091D702E6B5A89B05C0AE
:2019E000EF3F19F00196A11DB11DFFBFBA2FA92F982F88278E0F911DA11DB11DE2E0880F68
:201A0000991FAA1FBB1FEA95D1F7861B970B885E9340C8F2215030404040504068517C4FF9
:201A2000211531054105510571F60895789484B5826084BD84B5816084BD85B5826085BD79
:201A400085B5816085BDEEE6F0E0808181608083E1E8F0E0108280818260808380818160AD
:201A60008083E0E8F0E0808181608083E1EBF0E0808184608083E0EBF0E0808181608083E2
:201A8000EAE7F0E08081846080838081826080838081816080838081806880831092C100A3
:201AA0000895982F8E3008F09E5097708091DB018295880F880F807C892B80937C00809195
:201AC0007A00806480937A0080917A0086FDFCCF2091780040917900942F80E030E0282B49
:201AE000392BC90108951F93CF93DF93182FEB0161E00E94D30D209709F44AC0CF3FD105FD
:201B000009F449C0E12FF0E0E255FF4F84918330C1F0843028F4813051F08230B1F50CC0FB
:201B2000863019F1873049F1843079F514C084B5806884BDC7BD33C084B5806284BDC8BD44
:201B40002EC080918000806880938000D0938900C093880024C080918000806280938000DA
:201B6000D0938B00C0938A001AC08091B00080688093B000C093B30012C08091B0008062D9
:201B80008093B000C093B4000AC0C038D1051CF4812F60E002C0812F61E00E94F90DDF9118
:201BA000CF911F910895482F50E0CA0186569F4FFC0124914A575F4FFA0184918823C1F0CF
:201BC000E82FF0E0EE0FFF1FE859FF4FA591B491662341F49FB7F8948C91209582238C93C3
:201BE0009FBF08959FB7F8948C91822B8C939FBF0895482F50E0CA0182559F4FFC0124913B
:201C0000CA0186569F4FFC0134914A575F4FFA019491992309F444C0222351F1233071F006
:201C2000243028F42130A1F0223011F514C02630B1F02730C1F02430D9F404C080918000B1
:201C40008F7703C0809180008F7D8093800010C084B58F7702C084B58F7D84BD09C080915A
:201C6000B0008F7703C08091B0008F7D8093B000E92FF0E0EE0FFF1FEE58FF4FA591B49149
:201C8000662341F49FB7F8948C91309583238C939FBF08959FB7F8948C91832B8C939FBFD8
:201CA00008951F920F920FB60F9211242F933F934F938F939F93EF93FF934091C600E091B4
:201CC0005D03F0915E0331969F012F773070319780915F03909160032817390739F0E35279
:201CE000FD4F408330935E0320935D03FF91EF919F918F914F913F912F910F900FBE0F90C3
:201D00001F901895CF93DF93EC019A01AB01E885F985203081EE380780E0480780E0580708
:201D200009F449C081E090E00A8802C0880F991F0A94E2F7808360E079E08DE390E00E9494
:201D400072112150304040405040CA01B90122E030E040E050E00E947211EC81FD81308365
:201D6000EE81FF812083EA85FB85208141E050E0CA010E8402C0880F991F0A94E2F7282BB8
:201D80002083EA85FB852081CA010F8402C0880F991F0A94E2F7282B2083EA85FB85808144
:201DA000088802C0440F551F0A94E2F7842B8083DF91CF910895108220E130E0CECFDC0157
:201DC0001296ED91FC911397E058FF4F2191319180819181281B390B2F773070C901089565
:201DE000DC011296ED91FC911397EE57FF4F2081318192918291E058F0408217930719F4E5
:201E00002FEF3FEF05C0E20FF31F8081282F30E0C9010895DC011296ED91FC911397DF01C5
:201E2000AE57BF4F2D913C911197E058FF4F80819181E058F0408217930719F42FEF3FEFCF
:201E40000BC0E20FF31F80812F5F3F4F2F7730702D933C93282F30E0C9010895DC0112966F
:201E6000ED91FC911397EE57FF4F80819181929382930895FC01A085B18521898C9190E0A1
:201E8000022E02C0959587950A94E2F780FFF6CF0484F585E02D6083089580EE91E09093BE
:201EA0006203809361038DED92E0909364038093630385EC90E0909366038093650384ECFF
:201EC00090E0909368038093670380EC90E090936A038093690381EC90E090936C0380931A
:201EE0006B0386EC90E090936E0380936D0384E080936F0383E08093700387E080937103BB
:201F000085E08093720381E08093730308950E94160D0E942D0B0E94D40BFDCF0F931F930D
:201F2000CF93DF938C01EB0109C02196D801ED91FC910190F081E02DC80109956881662308
:201F4000A1F7DF91CF911F910F910895EF92FF920F931F93CF93DF938C017B01EA010CC032
:201F6000D7016D917D01D801ED91FC910190F081E02DC80109952197209791F7DF91CF91EC
:201F80001F910F91FF90EF9008952F923F924F925F926F927F928F929F92AF92BF92CF928B
:201FA000DF92EF92FF920F931F93DF93CF93CDB7DEB7A0970FB6F894DEBF0FBECDBF1C01C2
:201FC0006A017B01411551056105710549F440E350E060E070E020E030E00E94801056C01A
:201FE000882499245401422E55246624772401E010E00C0F1D1F080D191DC701B601A3017F
:2020000092010E945011F80160830894811C911CA11CB11CC701B601A30192010E94501125
:20202000C901DA016C017D01C114D104E104F104F1F681E0E82EF12CEC0EFD1EE80CF91CF3
:202040003E010894611C711CD501C4010197A109B1096C01C818D90816C0F601EE0DFF1DF2
:2020600040814A3010F4405D01C0495C552747FD5095652F752FC10120E030E00E9480103D
:202080000894E108F1086E147F0439F7A0960FB6F894DEBF0FBECDBFCF91DF911F910F91F0
:2020A000FF90EF90DF90CF90BF90AF909F908F907F906F905F904F903F902F900895DC0184
:2020C0002115310541F4ED91FC910190F081E02D642F099508950E94C50F0895EF92FF9252
:2020E0000F931F939A01E62EFF2400E010E0B801A7010E945F101F910F91FF90EF9008957D
:20210000EF92FF920F931F93CF93DF93EC017A018B012115310541F4E881F9810190F0810B
:20212000E02D642F09951BC02A303105B1F477FF10C04DE250E060E070E020E030E00E946A
:20214000801010950095F094E094E11CF11C011D111DCE01B801A7012AE00E94C50FDF9147
:20216000CF911F910F91FF90EF900895EF92FF920F931F937B019A010027F7FC0095102F99
:20218000B801A7010E9480101F910F91FF90EF9008952F923F924F925F926F927F928F921A
:2021A0009F92AF92BF92CF92DF92EF92FF920F931F93DF93CF93CDB7DEB73B014C01190194
:2021C0002A016D897E898F89988D6A197B098C099D09621A730A840A950AA40193010E9457
:2021E0001211E218F30804091509A80197010E9472112A0D3B1D4C1D5D1DB901CA01CF91DF
:20220000DF911F910F91FF90EF90DF90CF90BF90AF909F908F907F906F905F904F903F909B
:202220002F900895629FD001739FF001829FE00DF11D649FE00DF11D929FF00D839FF00D06
:20224000749FF00D659FF00D9927729FB00DE11DF91F639FB00DE11DF91FBD01CF01112431
:202260000895991B79E004C0991F961708F0961B881F7A95C9F78095089597FB092E0726C4
:202280000AD077FD04D049D006D000201AF4709561957F4F0895F6F7909581959F4F0895E6
:2022A000A1E21A2EAA1BBB1BFD010DC0AA1FBB1FEE1FFF1FA217B307E407F50720F0A21BF8
:2022C000B30BE40BF50B661F771F881F991F1A9469F760957095809590959B01AC01BD018E
:2022E000CF01089597FB092E05260ED057FD04D0D7DF0AD0001C38F450954095309521956A
:202300003F4F4F4F5F4F0895F6F790958095709561957F4F8F4F9F4F0895AA1BBB1B51E120
:2023200007C0AA1FBB1FA617B70710F0A61BB70B881F991F5A95A9F780959095BC01CD0182
:202340000895EE0FFF1F0590F491E02D0994F894FFCF2E63707000536572766F206F6E6CBE
:2023600079206F6E2070696E732066726F6D203220746F20313300493243206D6F646520BD
:202380006E6F742079657420737570706F7274656400556E6B6E6F776E2070696E206D6F21
:2023A0006465004E6F7420656E6F7567682064617461002F7661722F666F6C646572732FFE
:2023C000714D2F714D625253563343325261522D452B42597048425A2B2B2B2B544D2F2D13
:2023E000546D702D2F6275696C64373231323230393532393437333637393237322E746D4B
:20240000702F5374616E646172644669726D6174615F325F325F666F72554E4F5F305F334D
:202420002E63707000200078030000130001000000003A0F8E0FA60FDF0E0A0F2E0FF00EA0
:20244000714D2F714D625253563343325261522D452B42597048425A2B2B2B2B544D2F2D92
:20246000546D702D2F6275696C64373231323230393532393437333637393237322E746DCA
:20248000282F30E0C9010895DC011296ED91FC911397DF01AE57BF4F2D913C911197E058D6
:2024A000FF4F80819181E058F0408217930719F42FEF3FEF0BC0E20FF31F80812F5F3F4FDC
:2024C0002F7730702D933C93282F30E0C9010895DC011296ED91FC911397EE57FF4F80818B
:2024E0009181929382930895FC01A085B18521898C9190E0022E02C0959587950A94E2F7B5
:2025000080FFF6CF0484F585E02D6083089589E994E09093F8068093F70683E796E09093CE
:20252000FA068093F90685EC90E09093FC068093FB0684EC90E09093FE068093FD0680ECE6
:2025400090E0909300078093FF0681EC90E0909302078093010786EC90E090930407809382
:20256000030784E08093050783E08093060787E08093070785E08093080781E080930907B8
:2025800008950E94D2100E94CB040E947504FDCF0F931F93CF93DF938C01EB0109C02196A1
:2025A000D801ED91FC910190F081E02DC801099568816623A1F7DF91CF911F910F910895FA
:2025C000EF92FF920F931F93CF93DF938C017B01EA010CC0D7016D917D01D801ED91FC91C9
:2025E0000190F081E02DC80109952197209791F7DF91CF911F910F91FF90EF900895DC01C6
:20260000ED91FC910280F381E02D09950895CF92DF92EF92FF920F931F93CF93DF936C01F8
:202620007B01C0E0D0E00EC0D601ED91FC9100811181C701BE010E94A714682FC601F801D0
:2026400009952196F70184819581C817D90760F3DF91CF911F910F91FF90EF90DF90CF9004
:2026600008952F923F924F925F926F927F928F929F92AF92BF92CF92DF92EF92FF920F93DD
:202680001F93DF93CF93CDB7DEB7A0970FB6F894DEBF0FBECDBF1C016A017B01411551056D
:2026A0006105710549F440E350E060E070E020E030E00E94EB1356C0882499245401422E2A
:2026C00055246624772401E010E00C0F1D1F080D191DC701B601A30192010E94FE14F80186
:2026E00060830894811C911CA11CB11CC701B601A30192010E94FE14C901DA016C017D018D
:20270000C114D104E104F104F1F681E0E82EF12CEC0EFD1EE80CF91C3E010894611C711CB7
:20272000D501C4010197A109B1096C01C818D90816C0F601EE0DFF1D40814A3010F4405D14
:2027400001C0495C552747FD5095652F752FC10120E030E00E94EB130894E108F1086E14C4
:202760007F0439F7A0960FB6F894DEBF0FBECDBFCF91DF911F910F91FF90EF90DF90CF902D
:20278000BF90AF909F908F907F906F905F904F903F902F900895DC012115310541F4ED915A
:2027A000FC910190F081E02D642F099508950E9431130895EF92FF920F931F939A017B01AF
:2027C00000E010E0B801A7010E94CB131F910F91FF90EF900895EF92FF920F931F93CF9385
:2027E000DF93EC017A018B012115310541F4E881F9810190F081E02D642F09951BC02A307A
:202800003105B1F477FF10C04DE250E060E070E020E030E00E94EB1310950095F094E094C6
:20282000E11CF11C011D111DCE01B801A7012AE00E943113DF91CF911F910F91FF90EF90F4
:202840000895EF92FF920F931F937B019A010027F7FC0095102FB801A7010E94EB131F91BF
:202860000F91FF90EF900895EF92FF920F931F93E62E9A01FF24E7FCF0940F2D1F2DB8012D
:20288000A7010E94EB131F910F91FF90EF9008950F931F938C014DE050E060E070E020E027
:2028A00030E00E94EB13C8014AE050E060E070E020E030E00E94EB131F910F9108950F9376
:2028C0001F938C010E94FF12C8010E9448141F910F9108950F931F938C010E940713C801EC
:2028E0000E9448141F910F910895CF92DF92EF92FF920F931F938C01C62E9A01DD24C7FCD5
:20290000D094ED2CFD2CB701A6010E94EB13C8010E9448141F910F91FF90EF90DF90CF901F
:2029200008950895FC019B01848195816817790728F4608171816115710529F410920A07FF
:202940006AE077E002C0620F731FCB010895FC010190F081E02DE60FF71F80810895CF9391
:20296000DF93EC01CB017B836A8301960E94D70099838883009721F41B821A821D821C82E8
:20298000DF91CF9108950F931F93CF93DF938C01EB016115710511F4CAE6D4E0FE01019044
:2029A0000020E9F73197EC1BFD0BD8011596FC93EE931497C801BF010E94AF14F801808119
:2029C0009181009719F0BE010E941402DF91CF911F910F91089597FB092E07260AD077FDCD
:2029E00004D049D006D000201AF4709561957F4F0895F6F7909581959F4F0895A1E21A2E02
:202A0000AA1BBB1BFD010DC0AA1FBB1FEE1FFF1FA217B307E407F50720F0A21BB30BE40BAE
:202A2000F50B661F771F881F991F1A9469F760957095809590959B01AC01BD01CF01089566
:202A400097FB092E05260ED057FD04D0D7DF0AD0001C38F450954095309521953F4F4F4F43
:202A60005F4F0895F6F790958095709561957F4F8F4F9F4F0895AA1BBB1B51E107C0AA1F55
:202A8000BB1FA617B70710F0A61BB70B881F991F5A95A9F780959095BC01CD010895EE0F11
:202AA000FF1F0590F491E02D099411E0C8E5D1E004C0FE010E9451152296CA35D107C9F7CB
:202AC000F894FFCF526563656976656420534D532066726F6D20002873696D20706F736922
:202AE00074696F6E3A20002900534D532064656C6574656400534D53206E6F742064656CF6
:202B000065746564006E6F2063616C6C00696E636F6D696E6720766F6963652063616C6C34
:202B20002066726F6D200061637469766520766F6963652063616C6C006E6F20726573707C
:202B40006F6E736500436F6D6D616E643A2000436865636B5F50726F746F636F6C00416E69
:202B600073776572004E6F20696E636F6D696E672063616C6C0043616C6C696E6720004E7F
:202B80006F206E756D62657220696E20706F73200048616E670053656E6420534D532074E5
:202BA0006F2000534D53204552524F52200A00534D53204F4B200A0050686F6E65206E75EB
:202BC0006D62657220706F736974696F6E20002064656C657465640050686F6E6520426FD8
:202BE0006F6B20706F736974696F6E20003A20004E6F2050686F6E65206E756D626572204C
:202C0000696E20706F736974696F6E20004E756D62657220002077726974656420696E20D9
:202C200050686F6E6520426F6F6B20706F736974696F6E200057726974696E6720657272ED
:202C40006F720073797374656D207374617274757000415445000D00415448004154410021
:202C600041542B435042573D004F4B002C2200220D0041542B435042523D002B435042529E
:202C80000041542B434D47443D0041542B434D47523D002B434D4752002252454320554EE3
:202CA000524541442200225245432052454144220041542B434D47533D22003E002B434D3A
:202CC00047530041542B434C4343004F4B0D0A002B434C43433A20312C312C342C302C3094
:202CE000002B434C43433A20312C312C342C312C30002B434C43433A20312C302C302C30B4
:202D00002C30002B434C43433A20312C312C302C302C30002B434C43433A20312C312C3097
:202D20002C312C30002B434C43433A0041542B5654533D0041542B434C564C3D004154445F
:202D40003E22534D2220003B0D004154440041542B435041530030003300340041542B438F
:202D6000535100092B4353513A0041542B434E4D493D322C300041542B43504D533D225303
:202D80004D222C22534D222C22534D22002B43504D533A00415426460041542B434C495023
:202DA0003D310041542B434D45453D300041542B434D47463D310041542B435042533D22CC
:202DC000534D220041540041542B4950523D0041542B435245473F002B435245473A2030BE
:202DE0002C31002B435245473A20302C350041542B434D474C3D2252454320554E52454188
:202E000044220D0041542B434D474C3D225245432052454144220D0041542B434D474C3D98
:202E200022414C4C220D002B434D474C3A000020000F0700002B333933343539393332316F
:202E400030380068656C6C6F20776F726C640000000000D50EC812E012000000007412C8B1
:202E600012E012191244122A12681200350041542B434D474C3D2252454320554E5245412B
:202E800044220D0041542B434D474C3D22414C4C220D002B434D474C3A000020000F0700B7
:202EA000002B3339333435333035343739360068656C6C6F20776F726C6400000000000B06
:202EC0000FFE12161300000000AA12FE1216134F127A1260129E1200350041542B434D47DA
:202EE0004C3D2252454320554E52454144220D0041542B434D474C3D22524543205245412B
:202F00009F93EF93FF932091CA043091CB048091CC049091CD042817390731F48091C10013
:202F20008F7D8093C10014C0E091CC04F091CD04E657FB4F20818091CC049091CD040196B8
:202F40008F7390709093CD048093CC042093C600FF91EF919F918F913F912F910F900FBEC3
:202F60000F901F901895AF92BF92DF92EF92FF920F931F93CF93DF93EC017A018B01DD2424
:202F8000403081EE580780E0680780E0780711F0DD24D39491E0A92EB12CEC89FD89DD20BF
:202FA00069F0C5010E8C02C0880F991F0A94E2F7808360E079E08DE390E005C0108260E8B5
:202FC00074E88EE190E0A80197010E94D2192150304040405040569547953795279580E147
:202FE0002030380720F0DD2011F0DD24D6CFE889F9893083EA89FB892083EE89FF8940818E
:2030000021E030E0C9010A8C02C0880F991F0A94E2F7482B4083EE89FF894081C9010B8C60
:2030200002C0880F991F0A94E2F7482B4083EE89FF894081C9010C8C02C0880F991F0A9401
:20304000E2F7482B4083EE89FF8980810D8C02C0220F331F0A94E2F7209528232083DF91F9
:20306000CF911F910F91FF90EF90DF90BF90AF900895DC011C96ED91FC911D97E05CFF4F20
:203080002191319180819181281B390B2F733070C9010895DC011C96ED91FC911D97E05CEF
:2030A000FF4F20813181E054F040DF01AE5BBF4F8D919C9111972817390719F42FEF3FEF49
:2030C00007C08D919C91E80FF91F8081282F30E0C9010895DC011C96ED91FC911D97E05C76
:2030E000FF4F20813181E054F040DF01AE5BBF4F8D919C9111972817390719F42FEF3FEF09
:2031000010C08D919C911197E80FF91F20818D919C91119701968F73907011969C938E93B9
:2031200030E0C9010895FC0186859785DC01A05CBF4FFC01EE5BFF4F2D913C911197808145
:20314000918128173907C1F70895CF93DF93EC01EE85FF85E05CFF4F20813181E054F04090
:203160002F5F3F4F2F733070DF01AE5BBF4F8D919C91119728173907D1F3E05CFF4F808139
:203180009181E054F040E80FF91F6083EE85FF85E05CFF4F31832083EE89FF89208181E0EE
:2031A00090E00D8C02C0880F991F0A94E2F7282B208381E090E0DF91CF91089581E008954C
:2031C0001092D1041092D00488EE93E0A0E0B0E08093D2049093D304A093D404B093D504FF
:2031E00084EC91E09093CF048093CE0486E494E09093DB048093DA048AE894E09093DD0458
:203200008093DC0485EC90E09093DF048093DE0484EC90E09093E1048093E00480EC90E024
:203220009093E3048093E20481EC90E09093E5048093E40486EC90E09093E7048093E604BA
:2032400084E08093E80483E08093E90487E08093EA0485E08093EB0481E08093EC040895D8
:20326000CF93DF930E9462160E94E401C5E6D7E10E94C0012097E1F30E946517F9CFCF9241
:20328000DF92EF92FF920F931F93CF93DF937C016B018A01C0E0D0E00FC0D6016D916D01AD
:2032A000D701ED91FC910190F081E02DC7010995C80FD91F015010400115110571F7CE01E3
:2032C000DF91CF911F910F91FF90EF90DF90CF900895EF92FF920F931F938C01DC01ED9107
:2032E000FC910190F081E02D6DE009957C01D801ED91FC910190F081E02DC8016AE0099526
:203300009C012E0D3F1DC9011F910F91FF90EF900895CF93DF93DB010D900020E9F71197BF
:20332000A61BB70BEC01E881F9810280F381E02DAD010995DF91CF9108950E94891908959D
:20334000EF92FF920F931F937C010E9489198C01C7010E946919080F191FC8011F910F9165
:20336000FF90EF900895629FD001739FF001829FE00DF11D649FE00DF11D929FF00D839F63
:20338000F00D749FF00D659FF00D9927729FB00DE11DF91F639FB00DE11DF91FBD01CF0118
:2033A00011240895A1E21A2EAA1BBB1BFD010DC0AA1FBB1FEE1FFF1FA217B307E407F507E2
:2033C00020F0A21BB30BE40BF50B661F771F881F991F1A9469F760957095809590959B011B
:2033E000AC01BD01CF010895EE0FFF1F0590F491E02D099410E0C8EDD0E004C0FE010E945C
:20340000F6192296CA3DD107C9F7F894FFCF496E697469616C697A696E6720534420636166
:2034200072642E2E2E00696E697469616C697A6174696F6E206661696C65642100696E695E
:203440007469616C697A6174696F6E20646F6E652E00746573742E74787400577269746973
:203460006E6720746F20746573742E7478742E2E2E0074657374696E6720312C20322C2063
:20348000332E00646F6E652E006572726F72206F70656E696E6720746573742E747874004F
:2034A000746573742E7478743A002F002000F1040000FFFFFFFF00000000F602B3030E0385
:2034C00059037703510300000000CB0F3F1900000000A5183F1939186A184A1893187469BE
:2034E0006E6720746F20746573742E7478742E2E2E0074657374696E6720312C20322C20E3
:20350000FFFFFFFFFFFFFFFFFFFFFFFFFFFFFFFFFFFFFFFFFFFFFFFFFFFFFFFFFFFFFFFFCB
:20352000FFFFFFFFFFFFFFFFFFFFFFFFFFFFFFFFFFFFFFFFFFFFFFFFFFFFFFFFFFFFFFFFAB
:20354000FFFFFFFFFFFFFFFFFFFFFFFFFFFFFFFFFFFFFFFFFFFFFFFFFFFFFFFFFFFFFFFF8B
:20356000FFFFFFFFFFFFFFFFFFFFFFFFFFFFFFFFFFFFFFFFFFFFFFFFFFFFFFFFFFFFFFFF6B
:207E0000112484B714BE81FFF0D085E08093810082E08093C00088E18093C10086E08093FC
:207E2000C20080E18093C4008EE0C9D0259A86E020E33CEF91E0309385002093840096BBAD
:207E4000B09BFECF1D9AA8958150A9F7CC24DD2488248394B5E0AB2EA1E19A2EF3E0BF2E79
:207E6000A2D0813461F49FD0082FAFD0023811F0013811F484E001C083E08DD089C0823404
:207E800011F484E103C0853419F485E0A6D080C0853579F488D0E82EFF2485D0082F10E0A0
:207EA000102F00270E291F29000F111F8ED068016FC0863521F484E090D080E0DECF84364D
:207EC00009F040C070D06FD0082F6DD080E0C81680E7D80618F4F601B7BEE895C0E0D1E0ED
:207EE00062D089930C17E1F7F0E0CF16F0E7DF0618F0F601B7BEE89568D007B600FCFDCF1A
:207F0000A601A0E0B1E02C9130E011968C91119790E0982F8827822B932B1296FA010C016F
:207F200087BEE89511244E5F5F4FF1E0A038BF0751F7F601A7BEE89507B600FCFDCF97BE85
:207F4000E89526C08437B1F42ED02DD0F82E2BD03CD0F601EF2C8F010F5F1F4F84911BD0B8
:207F6000EA94F801C1F70894C11CD11CFA94CF0CD11C0EC0853739F428D08EE10CD085E9AE
:207F80000AD08FE07ACF813511F488E018D01DD080E101D065CF982F8091C00085FFFCCF0A
:207FA0009093C60008958091C00087FFFCCF8091C00084FD01C0A8958091C6000895E0E68F
:207FC000F0E098E1908380830895EDDF803219F088E0F5DFFFCF84E1DECF1F93182FE3DF47
:207FE0001150E9F7F2DF1F91089580E0E8DFEE27FF270994FFFFFFFFFFFFFFFFFFFF040425
:00000001FF
